{
  "address": "0xDc64a140Aa3E981100a9becA4E685f962f0cF6C9",
  "abi": [
    {
      "inputs": [],
      "name": "VERSION",
      "outputs": [
        {
          "internalType": "string",
          "name": "",
          "type": "string"
        }
      ],
      "stateMutability": "view",
      "type": "function"
    },
    {
      "inputs": [
        {
          "internalType": "uint256",
          "name": "_initValue",
          "type": "uint256"
        }
      ],
      "name": "initialize",
      "outputs": [],
      "stateMutability": "nonpayable",
      "type": "function"
    },
    {
      "inputs": [],
      "name": "initialized",
      "outputs": [
        {
          "internalType": "bool",
          "name": "",
          "type": "bool"
        }
      ],
      "stateMutability": "view",
      "type": "function"
    },
    {
      "inputs": [
        {
          "internalType": "uint256",
          "name": "_newValue",
          "type": "uint256"
        }
      ],
      "name": "setValue",
      "outputs": [],
      "stateMutability": "nonpayable",
      "type": "function"
    },
    {
      "inputs": [],
      "name": "value",
      "outputs": [
        {
          "internalType": "uint256",
          "name": "",
          "type": "uint256"
        }
      ],
      "stateMutability": "view",
      "type": "function"
    }
  ],
  "transactionHash": "0xfcbcd4c301dba65b5deb18a863115e499f60514f39c757bb17e8bb715e3bdf69",
  "args": [],
  "numDeployments": 1,
  "solcInputHash": "3f12fefd9fcc02683ae5740223f8acc0",
  "bytecode": "0x608060405234801561001057600080fd5b50610453806100206000396000f3fe608060405234801561001057600080fd5b50600436106100575760003560e01c8063158ef93e1461005c5780633fa4f2451461007a5780635524107714610098578063fe4b84df146100b4578063ffa1ad74146100d0575b600080fd5b6100646100ee565b60405161007191906101e1565b60405180910390f35b6100826100ff565b60405161008f9190610215565b60405180910390f35b6100b260048036038101906100ad9190610261565b610105565b005b6100ce60048036038101906100c99190610261565b61011b565b005b6100d861018d565b6040516100e5919061031e565b60405180910390f35b60008054906101000a900460ff1681565b60015481565b600a81610112919061036f565b60018190555050565b60008054906101000a900460ff1615610169576040517f08c379a0000000000000000000000000000000000000000000000000000000008152600401610160906103fd565b60405180910390fd5b8060018190555060016000806101000a81548160ff02191690831515021790555050565b6040518060400160405280600581526020017f312e302e3000000000000000000000000000000000000000000000000000000081525081565b60008115159050919050565b6101db816101c6565b82525050565b60006020820190506101f660008301846101d2565b92915050565b6000819050919050565b61020f816101fc565b82525050565b600060208201905061022a6000830184610206565b92915050565b600080fd5b61023e816101fc565b811461024957600080fd5b50565b60008135905061025b81610235565b92915050565b60006020828403121561027757610276610230565b5b60006102858482850161024c565b91505092915050565b600081519050919050565b600082825260208201905092915050565b60005b838110156102c85780820151818401526020810190506102ad565b60008484015250505050565b6000601f19601f8301169050919050565b60006102f08261028e565b6102fa8185610299565b935061030a8185602086016102aa565b610313816102d4565b840191505092915050565b6000602082019050818103600083015261033881846102e5565b905092915050565b7f4e487b7100000000000000000000000000000000000000000000000000000000600052601160045260246000fd5b600061037a826101fc565b9150610385836101fc565b9250828202610393816101fc565b915082820484148315176103aa576103a9610340565b5b5092915050565b7f4f6e6c7920696e697469616c697a65206f6e6365210000000000000000000000600082015250565b60006103e7601583610299565b91506103f2826103b1565b602082019050919050565b60006020820190508181036000830152610416816103da565b905091905056fea2646970667358221220067da9a685491cb92d989a371dd8d3ebeb45ea00b37648fefb071e5118c3b40664736f6c63430008120033",
  "devdoc": {
    "kind": "dev",
    "methods": {},
    "version": 1
  },
  "userdoc": {
    "kind": "user",
    "methods": {},
    "version": 1
  },
  "storageLayout": {
    "storage": [
      {
        "astId": 6,
        "contract": "contracts/StandarImpl.sol:StandarImpl",
        "label": "initialized",
        "offset": 0,
        "slot": "0",
        "type": "t_bool"
      },
      {
        "astId": 8,
        "contract": "contracts/StandarImpl.sol:StandarImpl",
        "label": "value",
        "offset": 0,
        "slot": "1",
        "type": "t_uint256"
      }
    ],
    "types": {
      "t_bool": {
        "encoding": "inplace",
        "label": "bool",
        "numberOfBytes": "1"
      },
      "t_uint256": {
        "encoding": "inplace",
        "label": "uint256",
        "numberOfBytes": "32"
      }
    }
  }
}